:020000040000FA
:100000000C9461000C947E000C947E000C947E0095
:100010000C947E000C947E000C947E000C947E0068
:100020000C947E000C947E000C947E000C947E0058
:100030000C947E000C947E000C947E000C947E0048
:100040000C940C030C947E000C947E000C947E00A7
:100050000C947E000C947E000C947E000C947E0028
:100060000C947E000C947E00000000002400270009
:100070002A0000000000250028002B0000000000DE
:1000800023002600290004040404040404040202DA
:100090000202020203030303030301020408102007
:1000A0004080010204081020010204081020000012
:1000B0000008000201000003040700000000000027
:1000C000000011241FBECFEFD8E0DEBFCDBF11E08E
:1000D000A0E0B1E0E8E2F8E002C005900D92A031A6
:1000E000B107D9F721E0A0E1B1E001C01D92AD3127
:1000F000B207E1F70E9456030C9412040C9400001E
:10010000833081F028F4813099F08230A9F008958D
:100110008730A9F08830C9F08430B1F48091800034
:100120008F7D03C0809180008F7780938000089539
:1001300084B58F7784BD089584B58F7DFBCF809182
:10014000B0008F778093B00008958091B0008F7DCC
:10015000F9CFCF93DF93282F30E0F901E255FF4F1D
:100160008491F901E656FF4FD491F901EA57FF4F08
:10017000C491CC23A1F081110E948000EC2FF0E00B
:10018000EE0FFF1FE458FF4FA591B491EC91ED23C2
:1001900081E090E009F480E0DF91CF91089580E064
:1001A00090E0FACF1F93CF93DF93282F30E0F9012F
:1001B000E255FF4F8491F901E656FF4FD491F901C2
:1001C000EA57FF4FC491CC23A9F0162F81110E944A
:1001D0008000EC2FF0E0EE0FFF1FEE58FF4FA591CF
:1001E000B4918FB7F894EC91111108C0D095DE232B
:1001F000DC938FBFDF91CF911F910895DE2BF8CF55
:10020000CF93DF9390E0FC01E656FF4F24918A578D
:100210009F4FFC0184918823C9F090E0880F991FBB
:10022000FC01E859FF4FA591B491FC01EE58FF4F36
:10023000C591D49161110DC09FB7F8948C91209510
:1002400082238C938881282328839FBFDF91CF91BD
:100250000895623051F49FB7F8943C91822F8095B5
:1002600083238C93E8812E2BEFCF8FB7F894EC91FA
:100270002E2B2C938FBFEACF3FB7F89480911501B6
:1002800090911601A0911701B091180126B5A89B75
:1002900005C02F3F19F00196A11DB11D3FBFBA2F18
:1002A000A92F982F8827BC01CD01620F711D811DD8
:1002B000911D42E0660F771F881F991F4A95D1F75D
:1002C00008958F929F92AF92BF92CF92DF92EF925A
:1002D000FF920E943C014B015C0184E6C82ED12CA8
:1002E000E12CF12C0E943C01681979098A099B09CB
:1002F000683E734081059105A8F321E0C21AD10838
:10030000E108F10888EE880E83E0981EA11CB11C5C
:10031000C114D104E104F10429F7FF90EF90DF90BC
:10032000CF90BF90AF909F908F900895CF93DF9321
:1003300080911B0190911C018130910509F0A2C0B0
:1003400010921A0110921901C0911901D0911A014D
:10035000CB30D1050CF05DC161E084E00E94D20099
:1003600060E085E00E94D20060E086E00E94D2005A
:1003700061E087E00E94D2000E94610160E084E0B9
:100380000E94D20060E085E00E94D20060E086E03A
:100390000E94D20061E087E00E94D2000E946101C9
:1003A00060E084E00E94D20060E085E00E94D2001C
:1003B00061E086E00E94D20061E087E00E94D20006
:1003C0000E94610160E084E00E94D20060E085E06C
:1003D0000E94D20061E086E00E94D20060E087E0E7
:1003E0000E94D2000E94610160E084E00E94D2007D
:1003F00061E085E00E94D20061E086E00E94D200C8
:1004000060E087E00E94D2000E94610160E084E029
:100410000E94D20061E085E00E94D20060E086E0A8
:100420000E94D20060E087E00E94D2000E94610139
:1004300061E084E00E94D20061E085E00E94D20089
:1004400060E086E00E94D20060E087E00E94D20077
:100450000E94610161E084E00E94D20060E085E0DA
:100460000E94D20060E086E00E94D20060E087E057
:100470000E94D2000E9461012196D0931A01C0937C
:10048000190162CF029709F0A2C010921A011092CE
:100490001901C0911901D0911A01CB30D1050CF08E
:1004A000B8C061E088E00E94D20060E089E00E946C
:1004B000D20060E08AE00E94D20061E08BE00E94FE
:1004C000D2000E94610160E088E00E94D20060E0FA
:1004D00089E00E94D20060E08AE00E94D20061E0E0
:1004E0008BE00E94D2000E94610160E088E00E94DF
:1004F000D20060E089E00E94D20061E08AE00E94C0
:10050000D20061E08BE00E94D2000E94610160E0B5
:1005100088E00E94D20060E089E00E94D20061E0A1
:100520008AE00E94D20060E08BE00E94D2000E942C
:10053000610160E088E00E94D20061E089E00E94F1
:10054000D20061E08AE00E94D20060E08BE00E946D
:10055000D2000E94610160E088E00E94D20061E068
:1005600089E00E94D20060E08AE00E94D20060E050
:100570008BE00E94D2000E94610161E088E00E944D
:10058000D20061E089E00E94D20060E08AE00E942F
:10059000D20060E08BE00E94D2000E94610161E025
:1005A00088E00E94D20060E089E00E94D20060E012
:1005B0008AE00E94D20060E08BE00E94D2000E949C
:1005C00061012196D0931A01C093190162CF60E0B6
:1005D00088E00E94D20060E089E00E94D20060E0E2
:1005E0008AE00E94D20060E08BE00E94D20060E0CE
:1005F00084E00E94D20060E085E00E94D20060E0CA
:1006000086E00E94D20060E087E0DF91CF910C94F9
:10061000D200DF91CF9108951F920F920FB60F92E3
:1006200011242F933F938F939F93AF93BF93809108
:10063000110190911201A0911301B0911401309118
:10064000100123E0230F2D3758F50196A11DB11D90
:10065000209310018093110190931201A093130134
:10066000B09314018091150190911601A09117018A
:10067000B09118010196A11DB11D809315019093B1
:100680001601A0931701B0931801BF91AF919F91EC
:100690008F913F912F910F900FBE0F901F90189543
:1006A00026E8230F0296A11DB11DD2CF789484B500
:1006B000826084BD84B5816084BD85B5826085BD5E
:1006C00085B5816085BD80916E00816080936E00EC
:1006D00010928100809181008260809381008091DE
:1006E000810081608093810080918000816080938F
:1006F00080008091B10084608093B1008091B0004F
:1007000081608093B00080917A00846080937A0049
:1007100080917A00826080937A0080917A00816073
:1007200080937A0080917A00806880937A0010929A
:10073000C10062E082E00E94000162E083E00E946A
:100740000001C8E0D1E000E011E08881229661E07C
:100750000E940001F80180810E5F1F4F61E00E943E
:100760000001F1E0C031DF0781F760E08CE00E941A
:10077000000161E08EE00E94000161E08FE00E94D4
:100780000001C0E0D0E001E010E082E0E82EF12CB2
:1007900082E00E94A900892B41F410931C01009370
:1007A0001B0161E08EE00E94D2000E94610160E0C6
:1007B0008EE00E94D2008CE00E94A900019751F4C3
:1007C0000E94960110921C0110921B0110921A01B6
:1007D0001092190183E00E94A900892B41F4F09244
:1007E0001C01E0921B0161E08FE00E94D2000E9498
:1007F000610160E08FE00E94D2008CE00E94A900BD
:10080000019751F40E94960110921C0110921B0155
:1008100010921A0110921901209709F4B9CF0E9481
:100820000000B6CFF894FFCF080009000A000B00C3
:080830000400050006000700AA
:107E0000112484B714BE81FFF0D085E080938100F7
:107E100082E08093C00088E18093C10086E0809377
:107E2000C20080E18093C4008EE0C9D0259A86E02C
:107E300020E33CEF91E0309385002093840096BBD3
:107E4000B09BFECF1D9AA8958150A9F7CC24DD24C4
:107E500088248394B5E0AB2EA1E19A2EF3E0BF2EE7
:107E6000A2D0813461F49FD0082FAFD0023811F036
:107E7000013811F484E001C083E08DD089C08234E0
:107E800011F484E103C0853419F485E0A6D080C0E4
:107E9000853579F488D0E82EFF2485D0082F10E0AE
:107EA000102F00270E291F29000F111F8ED06801E7
:107EB0006FC0863521F484E090D080E0DECF843638
:107EC00009F040C070D06FD0082F6DD080E0C81688
:107ED00080E7D80618F4F601B7BEE895C0E0D1E017
:107EE00062D089930C17E1F7F0E0CF16F0E7DF06D8
:107EF00018F0F601B7BEE89568D007B600FCFDCFD4
:107F0000A601A0E0B1E02C9130E011968C91119780
:107F100090E0982F8827822B932B1296FA010C0160
:107F200087BEE89511244E5F5F4FF1E0A038BF0790
:107F300051F7F601A7BEE89507B600FCFDCF97BE46
:107F4000E89526C08437B1F42ED02DD0F82E2BD052
:107F50003CD0F601EF2C8F010F5F1F4F84911BD097
:107F6000EA94F801C1F70894C11CD11CFA94CF0C13
:107F7000D11C0EC0853739F428D08EE10CD085E9AC
:107F80000AD08FE07ACF813511F488E018D01DD067
:107F900080E101D065CF982F8091C00085FFFCCF94
:107FA0009093C60008958091C00087FFFCCF809118
:107FB000C00084FD01C0A8958091C6000895E0E648
:107FC000F0E098E1908380830895EDDF803219F02E
:107FD00088E0F5DFFFCF84E1DECF1F93182FE3DFCA
:107FE0001150E9F7F2DF1F91089580E0E8DFEE27F6
:047FF000FF270994CA
:027FFE00040479
:00000001FF
