:020000040000FA
:100000000C9462000C948A000C948A000C948A0070
:100010000C948A000C948A000C948A000C948A0038
:100020000C948A000C948A000C948A000C948A0028
:100030000C948A000C948A000C948A000C948A0018
:100040000C9447060C948A000C948A000C948A0045
:100050000C948A000C948A000C948A000C948A00F8
:100060000C9491060C948A000000000024002700E4
:100070002A0000000000250028002B0000000000DE
:1000800023002600290004040404040404040202DA
:100090000202020203030303030301020408102007
:1000A0004080010204081020010204081020000012
:1000B0000008000201000003040700000000000027
:1000C0000000B00711241FBECFEFD8E0DEBFCDBFC8
:1000D00011E0A0E0B1E0ECE1F3E102C005900D9287
:1000E000A836B107D9F722E0A8E6B1E001C01D9219
:1000F000A834B207E1F710E0C2E6D0E004C02197CF
:10010000FE010E948609C136D107C9F70E94D107B6
:100110000C948C090C94000008950895AF92BF923E
:10012000CF92DF92EF92FF920F931F93CF93DF93C3
:100130006C017B018B01040F151FEB015E01AE18F2
:10014000BF08C017D10759F06991D601ED91FC9114
:100150000190F081E02DC6010995892B79F7C50141
:10016000DF91CF911F910F91FF90EF90DF90CF9093
:10017000BF90AF900895833081F028F4813099F0DA
:100180008230A9F008958730A9F08830C9F0843012
:10019000B1F4809180008F7D03C0809180008F77C3
:1001A00080938000089584B58F7784BD089584B5C9
:1001B0008F7DFBCF8091B0008F778093B000089542
:1001C0008091B0008F7DF9CFCF93DF93282F30E05F
:1001D000F901E255FF4F8491F901E656FF4FD491A2
:1001E000F901EA57FF4FC491CC23A1F081110E947D
:1001F000BB00EC2FF0E0EE0FFF1FE458FF4FA5917E
:10020000B491EC91ED2381E090E009F480E0DF917E
:10021000CF91089580E090E0FACF1F93CF93DF93C2
:10022000282F30E0F901E255FF4F8491F901E6569D
:10023000FF4FD491F901EA57FF4FC491CC23A9F0A5
:10024000162F81110E94BB00EC2FF0E0EE0FFF1F74
:10025000EE58FF4FA591B4918FB7F894EC9111111E
:1002600008C0D095DE23DC938FBFDF91CF911F9123
:100270000895DE2BF8CFCF93DF9390E0FC01E65694
:10028000FF4F24918A579F4FFC0184918823C9F026
:1002900090E0880F991FFC01E859FF4FA591B49198
:1002A000FC01EE58FF4FC591D49161110DC09FB76D
:1002B000F8948C91209582238C938881282328831D
:1002C0009FBFDF91CF910895623051F49FB7F894AA
:1002D0003C91822F809583238C93E8812E2BEFCF46
:1002E0008FB7F894EC912E2B2C938FBFEACF3FB7AA
:1002F000F8948091210290912202A0912302B09162
:10030000240226B5A89B05C02F3F19F00196A11D18
:10031000B11D3FBFBA2FA92F982F8827BC01CD014F
:10032000620F711D811D911D42E0660F771F881FAE
:10033000991F4A95D1F708958F929F92AF92BF92DD
:10034000CF92DF92EF92FF924B015C010E94770106
:100350006B017C010E9477016C197D098E099F0950
:10036000683E734081059105A8F321E0821A910847
:10037000A108B10888EEC80E83E0D81EE11CF11C6C
:1003800081149104A104B10429F7FF90EF90DF904C
:10039000CF90BF90AF909F908F9008950895209137
:1003A000AB01260F3327331F21323105ECF42091A6
:1003B000F401FC0190E080E0243069F082E00895CF
:1003C000A091AB012191AC0145575E4FA40FB52F11
:1003D000B11D2C930196861798F38091AB01680F9D
:1003E0006093AB0180E0089581E008951092F401DC
:1003F00081E08093F3011092CE0161E082E10E94DE
:100400000D0161E083E10E940D01E9EBF0E08081E4
:100410008E7F808380818D7F808388E48093B80085
:1004200085E48093BC000895CF93DF9391E090938F
:100430008A018823B9F0C091B800D091BA008091A8
:10044000BC008A7B8093BC0060E082E10E940D01C9
:1004500060E083E10E940D010E94F601D093BA0092
:10046000C093B800DF91CF9108950895E0912C02D8
:1004700080912B02E81730F4F0E0E659FE4F8081BE
:1004800090E008958FEF9FEF089590912C02809156
:100490002B022FEF3FEF981748F4E92FF0E0E659D1
:1004A000FE4F208130E09F5F90932C02C901089598
:1004B00080912B0290912C02891B990B0895CF9269
:1004C000DF92EF92FF920F931F93CF93DF937C0104
:1004D000CB018A012091FA01222389F0EB016B0103
:1004E000C40ED51ECC15DD0569F06991D701ED91DB
:1004F000FC910190F081E02DC7010995F3CF642FA5
:100500000E94CF01C801DF91CF911F910F91FF9001
:10051000EF90DF90CF900895CF93DF931F92CDB7E8
:10052000DEB769832091FA012223F9F02091290294
:10053000203258F021E030E0FC013383228390E048
:1005400080E00F90DF91CF91089580912A02E82FEB
:10055000F0E0E550FE4F998190838F5F80932A02EF
:100560008093290281E090E0ECCF61E0CE0101961A
:100570000E94CF01F7CFCF92DF92EF92FF920F93BD
:100580001F93CF93DF93FC01C48121E02093FA01F4
:10059000C0931B0210922A02109229028485682BB4
:1005A0008FE292E00E948C02D0912902D13208F0B1
:1005B00092C00E9477016B017C018091F40181114E
:1005C00065C082E08093F40181E08093F3018FEFB6
:1005D0008093F2011092F101D093F001ABEFB1E002
:1005E000E0EDF1E080E0D81385C01092CF0180915A
:1005F000CF01CC0FC82BC093CF018091CE018130A9
:1006000009F07CC01092CE010E9477016B017C0141
:100610008091CF018093BB008091F6019091F7010A
:10062000A091F801B091F901892B8A2B8B2B99F0BD
:100630000E9477010091F6011091F7012091F801D5
:100640003091F9016C197D098E099F09061717076A
:1006500028073907E0F18091BC0083FDD9CF85ECF4
:100660008093BC000E9477016B017C018091F401B2
:10067000823009F445C08091F2018F3F61F1809191
:10068000F201803241F18091F20125C08091F601A2
:100690009091F701A091F801B091F901892B8A2B73
:1006A0008B2B09F48ACF0E9477010091F6011091FB
:1006B000F7012091F8013091F9016C197D098E093B
:1006C0009F09061717072807390708F076CF80918A
:1006D000F5010E94140210922A021092290210922F
:1006E000FA01DF91CF911F910F91FF90EF90DF9072
:1006F000CF9008959D9191938F5F75CF85EEB0CF88
:100700008091F6019091F701A091F801B091F90163
:10071000892B8A2B8B2B09F4A9CF0E94770100919A
:10072000F6011091F7012091F8013091F9016C194F
:100730007D098E099F09061717072807390708F052
:1007400095CFC5CF90E080E00895CF93DF9380915F
:100750002D0290912E028130910509F0C2C01092B5
:10076000690110926801C0916801D0916901CB3094
:10077000D1050CF085C161E084E00E940D0160E0CC
:1007800085E00E940D0160E086E00E940D0161E0BD
:1007900087E00E940D0164E670E080E090E00E9436
:1007A0009C0160E084E00E940D0160E085E00E9411
:1007B0000D0160E086E00E940D0161E087E00E948B
:1007C0000D0164E670E080E090E00E949C0160E032
:1007D00084E00E940D0160E085E00E940D0161E06F
:1007E00086E00E940D0161E087E00E940D0164E651
:1007F00070E080E090E00E949C0160E084E00E9454
:100800000D0160E085E00E940D0161E086E00E943C
:100810000D0160E087E00E940D0164E670E080E079
:1008200090E00E949C0160E084E00E940D0161E084
:1008300085E00E940D0161E086E00E940D0160E00C
:1008400087E00E940D0164E670E080E090E00E9485
:100850009C0160E084E00E940D0161E085E00E945F
:100860000D0160E086E00E940D0160E087E00E94DB
:100870000D0164E670E080E090E00E949C0161E080
:1008800084E00E940D0161E085E00E940D0160E0BE
:1008900086E00E940D0160E087E00E940D0164E6A1
:1008A00070E080E090E00E949C0161E084E00E94A2
:1008B0000D0160E085E00E940D0160E086E00E948D
:1008C0000D0160E087E00E940D0164E670E080E0C9
:1008D00090E00E949C012196D0936901C093680129
:1008E00042CF8230910509F0C2C010926901109286
:1008F0006801C0916801D0916901CB30D1050CF03D
:10090000BFC061E088E00E940D0160E089E00E94C4
:100910000D0160E08AE00E940D0161E08BE00E9421
:100920000D0164E670E080E090E00E949C0160E0D0
:1009300088E00E940D0160E089E00E940D0160E006
:100940008AE00E940D0161E08BE00E940D0164E6E7
:1009500070E080E090E00E949C0160E088E00E94EE
:100960000D0160E089E00E940D0161E08AE00E94D3
:100970000D0161E08BE00E940D0164E670E080E013
:1009800090E00E949C0160E088E00E940D0160E020
:1009900089E00E940D0161E08AE00E940D0160E0A3
:1009A0008BE00E940D0164E670E080E090E00E9420
:1009B0009C0160E088E00E940D0161E089E00E94F6
:1009C0000D0161E08AE00E940D0160E08BE00E9471
:1009D0000D0164E670E080E090E00E949C0160E020
:1009E00088E00E940D0161E089E00E940D0160E055
:1009F0008AE00E940D0160E08BE00E940D0164E638
:100A000070E080E090E00E949C0161E088E00E943C
:100A10000D0161E089E00E940D0160E08AE00E9422
:100A20000D0160E08BE00E940D0164E670E080E063
:100A300090E00E949C0161E088E00E940D0160E06E
:100A400089E00E940D0160E08AE00E940D0160E0F3
:100A50008BE00E940D0164E670E080E090E00E946F
:100A60009C012196D0936901C093680142CF8330E5
:100A7000910549F48BE090E09093690180936801BF
:100A8000DF91CF9108950497A9F360E088E00E9478
:100A90000D0160E089E00E940D0160E08AE00E94A3
:100AA0000D0160E08BE00E940D0160E084E00E9497
:100AB0000D0160E085E00E940D0160E086E00E948B
:100AC0000D0160E087E0DF91CF910C940D01FC01F6
:100AD00001900020E9F73197AF01481B590BBC0189
:100AE0008BE392E00C948E000F931F93CF938C01B5
:100AF000C62F0E94BB026C2F6460C8010E94BB021B
:100B00006C2F6B7FC8010E94BB0283EC90E00197C1
:100B1000F1F7CF911F910F9108950F931F93CF93EA
:100B2000DF938C01D62FC42F607F642B0E94740545
:100B300080E1D89FB00111246C2BC801DF91CF91C7
:100B40001F910F910C947405CF93DF93CDB7DEB74F
:100B500028970FB6F894DEBF0FBECDBF98E0E0E057
:100B6000F1E0DE01119601900D929A95E1F79091D6
:100B70004302981708F48FEF90E0880F991F21E047
:100B800030E02C0F3D1F820F931FFC0160816068D5
:100B900040E08BE392E028960FB6F894DEBF0FBEDC
:100BA000CDBFDF91CF910C948D0540E061E08BE3E8
:100BB00092E00E948D058BE39FE10197F1F7809110
:100BC0004402882319F080E00C94A4050895109243
:100BD00069011092680110922E0210922D0260E0BD
:100BE00080E10E940D010E94D50580E00E94A405CD
:100BF00081E191E00E94670564E670E080E090E0AA
:100C00000E949C0181E00E94A40588E091E00C9480
:100C1000670541E00E948D0581E090E0089585ED33
:100C20008093BC008091F6019091F701A091F801AA
:100C3000B091F9010796A11DB11D23E0B695A795C6
:100C4000979587952A95D1F72091BC0024FD03C084
:100C50001092F40108954091F6015091F7016091CE
:100C6000F8017091F901452B462B472B69F300974A
:100C7000A105B10541F025E32A95F1F700000197A0
:100C8000A109B109E1CF8091F5010C9414021F92E2
:100C90000F920FB60F9211242F933F938F939F9330
:100CA000AF93BF9380911D0290911E02A0911F02ED
:100CB000B091200230911C0223E0230F2D3758F50C
:100CC0000196A11DB11D20931C0280931D029093DB
:100CD0001E02A0931F02B0932002809121029091E6
:100CE0002202A0912302B09124020196A11DB11D00
:100CF0008093210290932202A0932302B0932402B6
:100D0000BF91AF919F918F913F912F910F900FBE07
:100D10000F901F90189526E8230F0296A11DB11D74
:100D2000D2CF1F920F920FB60F9211242F933F93A1
:100D30004F935F936F937F938F939F93AF93BF93E3
:100D4000EF93FF938091B900887F803609F44AC001
:100D5000F0F5883209F4A7C018F5803109F49BC07A
:100D6000B8F4882309F4F9C0883009F494C0FF91DD
:100D7000EF91BF91AF919F918F917F916F915F9113
:100D80004F913F912F910F900FBE0F901F9018958C
:100D9000883109F488C0803251F78093F20114C081
:100DA000803409F49DC040F48033B9F38833F9F6F8
:100DB0008093F20185ECB0C0803509F485C0883598
:100DC00009F496C0883499F60E940F06D0CF88396E
:100DD00009F48CC038F5883729F050F4883611F0C2
:100DE000803729F683E08093F4011092CD0157C03B
:100DF000883809F47BC0803919F0803809F0B7CF02
:100E00008091CD01803208F071C0E091CD0181E088
:100E10008E0F8093CD018091BB00F0E0E355FE4F33
:100E200080833DC0803B39F0E0F4803A09F479C01A
:100E3000883A09F09CCF84E08093F4011092AC01D1
:100E40001092AB01E0912702F09128020995809160
:100E5000AB0181110FC081E08093AB0110928B0137
:100E600009C0803C09F4A6CF883C09F4A3CF883B95
:100E700009F07DCFE091AC0181E08E0F8093AC0151
:100E8000F0E0E557FE4F80818093BB009091AC016C
:100E90008091AB0129C08091CF018093BB0085EC8C
:100EA0008093BC0064CF9091F1018091F00198177C
:100EB00058F5E091F10181E08E0F8093F101F0E0AF
:100EC000E053FE4F8081E9CFE091F10181E08E0F88
:100ED0008093F1018091BB00F0E0E053FE4F8083EE
:100EE0009091F1018091F0019817C8F285E8D8CF70
:100EF000E091F10181E08E0F8093F1018091BB00C0
:100F0000F0E0E053FE4F80838091F30181115CCFCC
:100F100081E08093CE0184EA8093BC001092F401BA
:100F200026CF85EC8093BC001092F4018091CD0116
:100F3000803230F4E091CD01F0E0E355FE4F1082B5
:100F40006091CD0170E0E0912502F09126028DEADA
:100F500091E009951092CD010ACF1092F20134CFA1
:100F6000EFE2F2E01382128288EE93E0A0E0B0E0BC
:100F700084839583A683B7838DE491E091838083F6
:100F8000EBE3F2E0138212828FE591E0918380839C
:100F9000118680E2848380E1828782E083871486E1
:100FA0000895789484B5826084BD84B5816084BDE1
:100FB00085B5826085BD85B5816085BD80916E00F7
:100FC000816080936E001092810080918100826028
:100FD0008093810080918100816080938100809165
:100FE00080008160809380008091B1008460809354
:100FF000B1008091B00081608093B00080917A0050
:10100000846080937A0080917A00826080937A0075
:1010100080917A00816080937A0080917A00806864
:1010200080937A001092C10062E082E00E943B014E
:1010300062E083E00E943B01C4E2D1E00CE111E0F8
:101040003CE2E32E31E0F32E8881229661E00E949B
:101050003B01F80180810E5F1F4F61E00E943B0160
:10106000EC16FD0689F760E08CE00E943B0160E031
:101070008EE00E943B0160E08FE00E943B0161E056
:1010800080E10E943B0110922C0210922B021092E0
:101090002A02109229020E94F6018CE890E09093B7
:1010A0002802809327028DE890E090932602809397
:1010B00025021092400280914602823018F098E09A
:1010C000909340028093430262E370E080E090E0FE
:1010D0000E949C01609147028BE392E00E94BB0258
:1010E00068EE73E080E090E00E949C0160E38BE397
:1010F00092E00E947405CBE4D6E4CE010197F1F7AB
:1011000060E38BE392E00E9474052197F1F760E3BE
:101110008BE392E00E94740583E592E00197F1F77A
:1011200060E28BE392E00E9474056091400260628D
:1011300040E08BE392E00E948D0584E080934102C1
:1011400040E06CE08BE392E00E948D050E94D505A3
:1011500082E08093420240E066E08BE392E00E94EE
:101160008D0540E062E08BE392E00E948D058BE309
:101170009FE10197F1F788E08093470260E08BE3FD
:1011800092E00E94BB0280E00E94A40581E191E010
:101190000E94670564E670E080E090E00E949C0198
:1011A00081E00E94A40588E091E00E946705C0E00C
:1011B000D0E001E010E082E0E82EF12C93E0C92EAF
:1011C000D12C24E0A22EB12C82E00E94E400892BD5
:1011D00051F410932E0200932D020E94D5058AE34C
:1011E00091E00E9467058CE00E94E400892B89F45D
:1011F0000E94D50580E00E94A4058CE291E00E9447
:1012000067050E94A50310922E0210922D020E94E3
:10121000E70583E00E94E400892B51F4F0922E024E
:10122000E0922D020E94D5058AE391E00E946705B5
:101230008CE00E94E400892B89F40E94D50580E0AF
:101240000E94A4058CE291E00E9467050E94A5031C
:1012500010922E0210922D020E94E7058EE00E944D
:10126000E400019751F4D0922E02C0922D020E9408
:10127000D5058AE391E00E9467058CE00E94E400B6
:10128000892BA9F461E080E10E940D010E94D5053F
:1012900080E00E94A4058CE291E00E9467050E9414
:1012A000A50310922E0210922D020E94E7058FE0F6
:1012B0000E94E400019751F4B0922E02A0922D02F8
:1012C0000E94D5058AE391E00E9467058CE00E94A8
:1012D000E400892BA9F461E080E10E940D010E94E5
:1012E000D50580E00E94A4058CE291E00E9467058C
:1012F0000E94A50310922E0210922D020E94E70573
:10130000209709F461CF0E9400005ECFEE0FFF1F0F
:101310000590F491E02D0994F894FFCF000040006F
:101320001400540050524F445543544F0053454C01
:10133000454343494F4E4500080009000A000B0091
:10134000040005000600070050524F434553414E2C
:10135000444F2E2E2E00494E5345525445204D4F9A
:101360004E45444100000000008C025F02A203359C
:10137000025802450236020000000009068E00A253
:0413800003CE010097
:107E0000112484B714BE81FFF0D085E080938100F7
:107E100082E08093C00088E18093C10086E0809377
:107E2000C20080E18093C4008EE0C9D0259A86E02C
:107E300020E33CEF91E0309385002093840096BBD3
:107E4000B09BFECF1D9AA8958150A9F7CC24DD24C4
:107E500088248394B5E0AB2EA1E19A2EF3E0BF2EE7
:107E6000A2D0813461F49FD0082FAFD0023811F036
:107E7000013811F484E001C083E08DD089C08234E0
:107E800011F484E103C0853419F485E0A6D080C0E4
:107E9000853579F488D0E82EFF2485D0082F10E0AE
:107EA000102F00270E291F29000F111F8ED06801E7
:107EB0006FC0863521F484E090D080E0DECF843638
:107EC00009F040C070D06FD0082F6DD080E0C81688
:107ED00080E7D80618F4F601B7BEE895C0E0D1E017
:107EE00062D089930C17E1F7F0E0CF16F0E7DF06D8
:107EF00018F0F601B7BEE89568D007B600FCFDCFD4
:107F0000A601A0E0B1E02C9130E011968C91119780
:107F100090E0982F8827822B932B1296FA010C0160
:107F200087BEE89511244E5F5F4FF1E0A038BF0790
:107F300051F7F601A7BEE89507B600FCFDCF97BE46
:107F4000E89526C08437B1F42ED02DD0F82E2BD052
:107F50003CD0F601EF2C8F010F5F1F4F84911BD097
:107F6000EA94F801C1F70894C11CD11CFA94CF0C13
:107F7000D11C0EC0853739F428D08EE10CD085E9AC
:107F80000AD08FE07ACF813511F488E018D01DD067
:107F900080E101D065CF982F8091C00085FFFCCF94
:107FA0009093C60008958091C00087FFFCCF809118
:107FB000C00084FD01C0A8958091C6000895E0E648
:107FC000F0E098E1908380830895EDDF803219F02E
:107FD00088E0F5DFFFCF84E1DECF1F93182FE3DFCA
:107FE0001150E9F7F2DF1F91089580E0E8DFEE27F6
:047FF000FF270994CA
:027FFE00040479
:00000001FF
